:020000040800F2
:1000000000800020D9250008F5240008F724000806
:10001000F9240008FB240008FD240008000000006B
:10002000000000000000000000000000FF240008A5
:100030000125000800000000032500080525000830
:100040002926000829260008292600082926000854
:100050002926000829260008292600082926000844
:100060002926000829260008292600082926000834
:100070002926000829260008292600082926000824
:10008000292600082926000829260008000000006B
:100090000000000000000000000000002926000809
:1000A00029260008292600082926000829260008F4
:1000B00000000000000000000000000029260008E9
:1000C00029260008292600082926000829260008D4
:1000D000292600082926000829260008000000001B
:1000E0002926000829260008000000000000000062
:1000F00000000000000000000000000029260008A9
:100100000000000000000000292600080000000098
:100110000000000000000000292600080000000088
:100120002926000829260008292600082926000873
:100130002926000800000000000000000000000068
:1001400000000000000000000000000000000000AF
:100150002926000829260008292600080D25000860
:10016000000000000000000000000000000000008F
:10017000000000000000000000000000000000007F
:1001800029260008292600080000000000000000C1
:100190000000000029260008000000000000000008
:1001A000000000000000000000000000000000004F
:1001B00000000000000000000000000029260008E8
:0801C000292600082926000889
:1001D00010B5054C237833B9044B13B10448AFF381
:1001E00000800123237010BD70000020000000007B
:1001F0002035000808B5034B1BB103490348AFF392
:10020000008008BD000000007400002020350008B8
:1002100053B94AB9002908BF00281CBF4FF0FF316D
:100220004FF0FF3000F072B9ADF1080C6DE904CE6B
:1002300000F006F8DDF804E0DDE9022304B07047C1
:100240002DE9F047089E04468846002B4BD18A4290
:10025000154667D9B2FA82F24AB1C2F1200701FA13
:1002600002F320FA07F7954047EA030894404FEA63
:10027000154E230CB8FBFEF71FFA85FC0EFB178802
:1002800043EA084307FB0CF1994209D9EB1807F13F
:10029000FF3080F01B81994240F21881023F2B44CD
:1002A0005B1AA4B2B3FBFEF00EFB103344EA034426
:1002B00000FB0CFCA44509D92C1900F1FF3380F098
:1002C0000781A44540F2048102382C4440EA0740EB
:1002D000A4EB0C0400271EB1D4400023C6E9004360
:1002E0003946BDE8F0878B4209D9002E00F0EB803B
:1002F0000027C6E9000138463946BDE8F087B3FA61
:1003000083F7002F47D18B4202D3824200F2FA805A
:10031000841A61EB030301209846002EE0D0C6E961
:100320000048DDE702B9FFDEB2FA82F2002A40F0AF
:100330008F80491B4FEA154E1FFA85F80127B1FB44
:10034000FEFC230C0EFB1C1143EA014308FB0CF1DD
:10035000994207D9EB180CF1FF3002D2994200F212
:10036000CD808446591AA3B2B1FBFEF00EFB1014E7
:1003700043EA044408FB00F8A04507D92C1900F112
:10038000FF3302D2A04500F2B6801846A4EB080461
:1003900040EA0C409FE7C7F1200CBB4022FA0CFE5C
:1003A0004EEA030E01FA07F420FA0CF521FA0CF3D9
:1003B0004FEA1E482543B3FBF8F92C0C08FB193310
:1003C0001FFA8EFA44EA034309FB0AF49C4202FA3C
:1003D00007F200FA07F10BD91EEB030309F1FF3016
:1003E00080F087809C4240F28480A9F10209734426
:1003F0001B1BADB2B3FBF8F008FB103345EA034416
:1004000000FB0AFAA24508D91EEB040400F1FF33F1
:100410006BD2A24569D90238744440EA0940A0FB76
:100420000289A4EB0A044C45C2464B4654D351D032
:10043000002E69D0B1EB0A0564EB030404FA0CFC4E
:10044000FD40FC404CEA0505C6E90054002747E79B
:10045000C2F1200320FA03F7954001FA02F021FAD5
:1004600003F34FEA154E3843010CB3FBFEF71FFAB6
:1004700085F80EFB173341EA034107FB08F38B4273
:1004800004FA02F407D9691807F1FF3C2FD28B4216
:100490002DD9023F2944CB1A81B2B3FBFEF00EFBEB
:1004A000103341EA034100FB08F38B4207D9691876
:1004B00000F1FF3C17D28B4215D902382944C91AE2
:1004C00040EA07473BE73746304609E70746E7E695
:1004D0001846FBE64145ABD2B8EB020A69EB0E02C7
:1004E00001381346A4E76046E9E7184695E76746F2
:1004F000D1E781467CE702382C4447E7ACF1020C97
:100500002B442FE7384608E73746E9E6704700BF37
:1005100001F0FF01102A2BDB10F0070F08D010F8B4
:10052000013B013A8B422DD010F0070F42B3F6D1B8
:10053000F0B441EA012141EA014122F007047FF0D1
:1005400000070023F0E80256083C85EA010586EA28
:10055000010685FA47F5A3FA87F586FA47F6A5FA64
:1005600087F68EB9EED1F0BC01F0FF0102F0070270
:1005700032B110F8013B013A83EA010313B1F8D11B
:100580000020704701387047002D06BF35460338FC
:10059000073815F0010F07D1013015F4807F02BF35
:1005A000013015F4C03F0130F0BC0138704700BF86
:1005B00010B504460E4B18784FF47A73B3FBF0F382
:1005C0000C4A1068B0FBF3F000F0AAF868B90F2CE1
:1005D00001D901200AE0002221464FF0FF3000F04F
:1005E0005DF8034B5C60002000E0012010BD00BFFF
:1005F000000000200800002008B50B4B1A6842F4E8
:1006000000721A601A6842F480621A601A6842F432
:1006100080721A60032000F02FF80020FFF7C8FF57
:1006200001F0C4FE002008BD003C0240034A1168EE
:10063000034B1B780B441360704700BFC4000020BD
:1006400000000020014B1868704700BFC400002064
:1006500038B50446FFF7F6FF0546B4F1FF3F02D078
:10066000044B1B781C44FFF7EDFF401BA042FAD35C
:1006700038BD00BF00000020074AD36823F4E063C0
:100680001B041B0C000200F4E060184340F0BF6044
:1006900040F40030D060704700ED00E030B4174BFC
:1006A000DB68C3F30223C3F10704042C28BF04242E
:1006B0001D1D062D18D9033B4FF0FF3505FA04F434
:1006C00021EA0401994005FA03F322EA03031943DE
:1006D00000280BDB0901C9B200F1604000F5614060
:1006E00080F8001330BC70470023E5E700F00F00EE
:1006F0000901C9B2024B1954F4E700BF00ED00E054
:1007000014ED00E0002807DB00F01F024009012380
:100710009340024A42F82030704700BF00E100E0F9
:100720000138B0F1807F0AD2064B5860064AF021AA
:1007300082F823100020986007221A607047012079
:10074000704700BF10E000E000ED00E090F83530A9
:10075000DBB2022B03D080234365012070470523C1
:1007600080F835300268136823F00103136000201D
:100770007047000000230F2B00F2BA80F0B482B063
:1007800074E0846806EA040CCC68BC4044EA0C04BB
:100790008460446824EA02024C68C4F300149C405C
:1007A00014434460C26816408A68BA403243C2604B
:1007B0004A6812F0805F56D0002201924D4A546C74
:1007C00044F480445464526C02F480420192019AD1
:1007D0009C08A61C484A52F8267003F003029600B3
:1007E0000F22B24027EA0207444A904279D002F52C
:1007F0008062904277D002F5806290426FD00722EB
:10080000B2403A4302343C4E46F824203C4A146835
:10081000EA4302EA04064F6817F4803F01D045EA34
:100820000406374C2660646802EA04064F6817F431
:10083000003F01D045EA0406314C6660A46802EA34
:1008400004064F6817F4801F01D045EA04062C4CBB
:10085000A660E46822404E6816F4001F01D045EA05
:100860000402274CE26001330F2B3ED801229A404C
:100870000C6804EA0205AA42F5D14C68022C01D0AA
:10088000122C10D1DE08083650F826C003F00704F9
:10089000A7000F24BC402CEA040C0C69BC4044EABD
:1008A0000C0440F8264004685F000326BE40F6436F
:1008B00006EA040C4C6804F00304BC4044EA0C044F
:1008C00004604C6804F1FF3CBCF1010F7FF659AFA6
:1008D000112C3FF456AF122C7FF464AF51E7022283
:1008E0008EE700228CE701228AE702B0F0BC704755
:1008F000704700BF0038024000380140000002404D
:10090000003C01400369194201D1002070470120D9
:10091000704712B90904816170478161704743696A
:1009200031EA030301D08161704709048161704796
:10093000324B9B6803F00C03042B5CD0082B01D0D6
:100940002F4870472DE9F04B2C4B5A6802F03F02BC
:100950005B6813F4800F2BD0284B5B68C3F38813BC
:100960001E4600275C010025E41A65EB0705A90176
:1009700041EA9461A001001B61EB0501CB0043EA51
:100980005073C400A01943EB07014B0243EAD05354
:100990004402204619460023FFF73AFC174B5B68D8
:1009A000C3F3014301335B00B0FBF3F0BDE8F08B10
:1009B000124B5B68C3F388131E4600275C010025B9
:1009C000E41A65EB0705A90141EA9461A001001B47
:1009D00061EB0501CB0043EA5073C400A01943EB5F
:1009E00007018B0243EA90538402204619460023F4
:1009F000FFF70EFCD2E70348704700BF0038024003
:100A00000024F40000127A00002800F09D8070B5E8
:100A100004464F4B1B6803F00F038B4209D2CBB245
:100A20004B4A1370136803F00F038B4201D001206F
:100A300070BD236813F0020F17D013F0040F04D019
:100A4000444A936843F4E0539360236813F0080F1B
:100A500004D0404A936843F4604393603D4A9368EE
:100A600023F0F003A068034393600D46236813F05E
:100A7000010F32D06368012B21D09A1E012A25D99B
:100A8000344A126812F0020F60D032498A6822F0AC
:100A9000030213438B60FFF7D5FD06462D4B9B6881
:100AA00003F00C036268B3EB820F16D0FFF7CAFDA8
:100AB000801B41F288339842F0D90320B8E7254AD9
:100AC000126812F4003FE0D10120B1E7214A126818
:100AD00012F0007FD9D10120AAE71D4B1B6803F05B
:100AE0000F03AB4209D9EAB2194B1A701B6803F025
:100AF0000F03AB4201D001209AE7236813F0040FE3
:100B000006D0144A936823F4E053E1680B439360E2
:100B1000236813F0080F07D00E4A936823F460434C
:100B2000216943EAC1039360FFF702FF094B9B6809
:100B3000C3F30313084AD35CD840084B1860002065
:100B4000FFF736FD002073E70120704701206FE7B3
:100B5000003C024000380240383500080800002000
:100B6000014B1868704700BF0800002008B5FFF768
:100B7000F7FF044B9B68C3F38223034AD35CD8403E
:100B800008BD00BF003802404835000808B5FFF72F
:100B9000E7FF044B9B68C3F34233034AD35CD8405E
:100BA00008BD00BF003802404835000870B582B06B
:100BB0000446036813F0010F3BD0A74B9B6803F07A
:100BC0000C03042B2CD0A44B9B6803F00C03082BC4
:100BD00021D06368B3F5803F4FD0B3F5A02F52D03A
:100BE0009D4B1A6822F480321A601A6822F480221F
:100BF0001A606368002B50D0FFF724FD0546964B22
:100C00001B6813F4003F14D1FFF71CFD401B642840
:100C1000F5D903208AE1904B5B6813F4800FD8D09C
:100C20008D4B1B6813F4003F03D06368002B00F06A
:100C30007A81236813F0020F55D0874B9B6813F01D
:100C40000C0F3ED0844B9B6803F00C03082B33D071
:100C5000E368002B68D0814B01221A60FFF7F2FC99
:100C600005467D4B1B6813F0020F54D1FFF7EAFCD9
:100C7000401B0228F5D9032058E1774A136843F452
:100C800080331360B5E7744B1A6842F480221A600F
:100C90001A6842F480321A60ABE7FFF7D3FC0546CE
:100CA0006D4B1B6813F4003FC3D0FFF7CBFC401B18
:100CB0006428F5D9032039E1674B5B6813F4800F92
:100CC000C6D1654B1B6813F0020F04D0E368012BFB
:100CD00001D001202AE1604A136823F0F80321695A
:100CE00043EAC1031360236813F0080F40D063691F
:100CF00063B35B4B01221A60FFF7A4FC0546564B19
:100D00005B6F13F0020F33D1FFF79CFC401B0228EE
:100D1000F5D903200AE1504A136823F0F80321694A
:100D200043EAC1031360DEE74C4B00221A60FFF771
:100D300089FC0546484B1B6813F0020FD3D0FFF720
:100D400081FC401B0228F5D90320EFE0444B002230
:100D50001A60FFF777FC05463F4B5B6F13F0020FFD
:100D600006D0FFF76FFC401B0228F5D90320DDE019
:100D7000236813F0040F78D0374B1B6C13F0805F9F
:100D800033D100230193344B1A6C42F080521A6421
:100D90001B6C03F080530193019B0125314B1B68B1
:100DA00013F4807F23D0A368012B34D0052B38D0D7
:100DB000294B1A6F22F001021A671A6F22F00402FF
:100DC0001A67A368002B36D0FFF73CFC0646224B7F
:100DD0001B6F13F0020F47D1FFF734FC801B41F269
:100DE00088339842F3D90320A0E00025D6E71D4AB6
:100DF000136843F480731360FFF724FC0646194B15
:100E00001B6813F4807FCED1FFF71CFC801B0228E7
:100E1000F5D903208AE0104A136F43F001031367EA
:100E2000CFE70D4B1A6F42F004021A671A6F42F0B7
:100E300001021A67C5E7FFF705FC0646064B1B6F64
:100E400013F0020F10D0FFF7FDFB801B41F2883337
:100E50009842F3D9032069E000380240000047427D
:100E6000800E474200700040E5B9A369002B5CD0BA
:100E7000304A926802F00C02082A59D0022B17D08F
:100E80002D4B00221A60FFF7DDFB0446294B1B683F
:100E900013F0007F45D0FFF7D5FB001B0228F5D9E2
:100EA000032043E0234A136C23F080531364DCE7F0
:100EB000214B00221A60FFF7C5FB05461D4B1B683E
:100EC00013F0007F06D0FFF7BDFB401B0228F5D9C9
:100ED00003202BE0E369226A1343626A43EA821328
:100EE000A26A5208013A43EA0243E26A43EA026311
:100EF000226B43EA02730F4A53600F4B01221A60C0
:100F0000FFF7A0FB04460B4B1B6813F0007F06D1D4
:100F1000FFF798FB001B0228F5D9032006E000200C
:100F200004E0002002E0012000E0002002B070BDDB
:100F30000120FBE7003802406000474270B4036ABA
:100F400023F001030362036A4268846924F0730496
:100F50000D6845EA040623F002048B6823430D4D17
:100F6000A84209D00B4DA8420DD0426086614A6864
:100F70004263036270BC704723F00803CC682343CC
:100F800023F00403EEE722F440724C6914438A69AB
:100F90002243EAE70000014030B4036A23F480737F
:100FA0000362036A4268C46924F073040D682C4329
:100FB00023F400738D6843EA05230F4DA84209D03E
:100FC0000D4DA8420ED04260C4614A68C2630362FC
:100FD00030BC704723F40063CD6843EA052323F453
:100FE0008063EDE722F440524D6942EA05128D69B3
:100FF00042EA0512E7E700BF0000014030B4036A8F
:1010000023F480530362036A4468C26922F4E6420F
:101010000D6842EA052223F400538D6843EA053344
:10102000074DA84206D04460C2614A680264036268
:1010300030BC704724F480444D6944EA8514F2E7DB
:101040000000014010B4036A046A24F00104046241
:10105000846924F0F00444EA021223F00A030B43EB
:10106000826103625DF8044B704710B4036A23F099
:10107000100303628469036A24F4704444EA023270
:1010800023F0A00343EA0113826103625DF8044B7D
:101090007047836823F07003194341F007018160B2
:1010A000704770470368184A904203D0A2F5744213
:1010B000904203D123F070034A681343124A9042CE
:1010C0000BD0A2F57442904207D002F59A329042BA
:1010D00003D002F50062904203D123F44073CA6842
:1010E000134323F080034A69134303608B68C36290
:1010F0000B688362044B984202D00123436170471E
:101100000B690363F9E700BF00000140A8B110B507
:10111000044690F83D305BB1022384F83D30211D38
:101120002068FFF7BFFF012384F83D30002010BD89
:1011300080F83C3001F05AF9EEE701207047A8B181
:1011400010B5044690F83D305BB1022384F83D3081
:10115000211D2068FFF7A6FF012384F83D30002001
:1011600010BD80F83C30FFF79CFFEEE70120704790
:1011700030B4036A23F010030362036A446882698F
:1011800022F4E6420D6842EA052223F020038D682E
:1011900043EA05130E4DA84209D00D4DA8420ED0CA
:1011A000446082614A688263036230BC704723F006
:1011B0008003CD6843EA051323F04003EDE724F4F0
:1011C00040644D6944EA85048D6944EA8504E7E793
:1011D0000000014038B590F83C30012B66D00D4638
:1011E0000446012380F83C30022380F83D300C2A6D
:1011F0001AD8DFE802F0071919192019191934193A
:10120000191947000068FFF799FE2268936943F0B7
:10121000080393612268936923F0040393612268B1
:10122000936929690B439361012384F83D300020C1
:1012300084F83C0038BD0068FFF79AFF2268936984
:1012400043F4006393612268936923F4806393619C
:1012500022689369296943EA01239361E4E70068FE
:10126000FFF79AFE2268D36943F00803D36122682E
:10127000D36923F00403D3612268D36929690B433E
:10128000D361D1E70068FFF7B9FE2268D36943F460
:101290000063D3612268D36923F48063D361226839
:1012A000D369296943EA0123D361BDE70220C1E77D
:1012B00010B4846824F47F4442EA03230B4323439D
:1012C00083605DF8044B704790F83C30012B66D08A
:1012D00010B50446012380F83C30022380F83D30ED
:1012E0000268936823F47F4323F0770393600B68CD
:1012F000402B4AD013D9602B3DD01ED9702B28D05B
:10130000B3F5005F30D1CB684A6889680068FFF7A1
:10131000CFFF2268936843F48043936024E0102B4E
:1013200006D004D9202B03D0302B01D01CE0DBB930
:1013300019462068FFF7ADFE16E0502B14D1CA689D
:1013400049680068FFF77EFE50212068FFF7A1FE84
:101350000AE0CB684A6889680068FFF7A9FF22683D
:10136000936843F077039360012384F83D300020B5
:1013700084F83C0010BDCA6849680068FFF775FE34
:1013800060212068FFF785FEEEE7CA6849680068BB
:10139000FFF758FE40212068FFF77BFEE4E70220BC
:1013A000704710B401F01F01012303FA01F4036A2E
:1013B00023EA04030362036A8A40134303625DF86D
:1013C000044B704710B5044601220068FFF7E9FF9F
:1013D00023680A4A93420BD02268936803F00703FC
:1013E000062B03D0136843F001031360002010BDE7
:1013F0005A6C42F400425A64EEE700BF000001401C
:101400000268D36823F49073D3600268536923F0B1
:1014100001035361202380F83A30704790F8393047
:10142000DBB2212B2AD18368B3F5805F16D0036A23
:101430005A1C02621A7803685A60C38C013B9BB243
:10144000C384EBB90268D36823F08003D3600268D9
:10145000D36843F04003D36000207047036A1B88C1
:101460000268C3F30803536003691BB9036A0233BC
:101470000362E2E7036A01330362DEE7022070479A
:10148000002070472DE9F84304460268136923F4ED
:101490004053C1680B431361836802691343426977
:1014A0001343C2691A430168CB6823F4164323F03F
:1014B0000C031343CB600268536923F440738169C2
:1014C0000B435361C369B3F5004F60D00368B84A5A
:1014D000934200F0148102F58062934200F00F8184
:1014E000FFF744FB00EB800000EB80006568AD0077
:1014F000B0FBF5F5AF4FA7FB05356D092E01FFF7E2
:1015000035FB00EB800000EB80006568AD00B0FBB0
:10151000F5F9FFF72BFB00EB800000EB800065681E
:10152000AD00B0FBF5F5A7FB05356D094FF064087C
:1015300008FB15952D013235A7FB05356D0905F022
:10154000F0053544FFF712FB00EB800000EB800054
:101550006668B600B0FBF6F6FFF708FB00EB80000C
:1015600000EB800063689B00B0FBF3F0A7FB00304A
:10157000400908FB10684FEA081808F13208A7FB79
:101580000837C7F3431723682F449F600DE10368B2
:10159000874A93425BD002F58062934257D0FFF7AF
:1015A000E5FA00EB800000EB800065686D00B0FBA1
:1015B000F5F5804FA7FB05356D092E01FFF7D6FA2B
:1015C00000EB800000EB800065686D00B0FBF5F972
:1015D000FFF7CCFA00EB800000EB800065686D003F
:1015E000B0FBF5F5A7FB05356D094FF0640808FB66
:1015F0001595ED003235A7FB05356D096D0005F435
:10160000F8753544FFF7B2FA00EB800000EB80007C
:1016100066687600B0FBF6F6FFF7A8FA00EB8000EC
:1016200000EB800063685B00B0FBF3F3A7FB0323D0
:101630005B0908FB13684FEAC80808F13208A7FBEA
:101640000837C7F3421723682F449F60ADE0FFF7C8
:101650009DFA00EB800000EB800065686D00B0FB38
:10166000F5F5544FA7FB05356D092E01FFF78EFAEE
:1016700000EB800000EB800065686D00B0FBF5F9C1
:10168000FFF784FA00EB800000EB800065686D00D6
:10169000B0FBF5F5A7FB05356D094FF0640808FBB5
:1016A0001595ED003235A7FB05356D096D0005F484
:1016B000F8753544FFF76AFA00EB800000EB800014
:1016C00066687600B0FBF6F6FFF760FA00EB800084
:1016D00000EB800063685B00B0FBF3F3A7FB032320
:1016E0005B0908FB13684FEAC80808F13208A7FB3A
:1016F0000837C7F3421723682F449F6055E0FFF770
:1017000045FA00EB800000EB80006568AD00B0FB9F
:10171000F5F5284FA7FB05356D092E01FFF736FAC1
:1017200000EB800000EB80006568AD00B0FBF5F9D0
:10173000FFF72CFA00EB800000EB80006568AD003D
:10174000B0FBF5F5A7FB05356D094FF0640808FB04
:1017500015952D013235A7FB05356D0905F0F0050E
:101760003544FFF713FA00EB800000EB8000666859
:10177000B600B0FBF6F6FFF709FA00EB800000EBCD
:10178000800063689B00B0FBF3F0A7FB00304009CA
:1017900008FB10684FEA081808F13208A7FB083761
:1017A000C7F3431723682F449F60BDE8F88300BF49
:1017B000001001401F85EB512DE9F04105460F4611
:1017C00016469846069C2B681B6837EA03030CBF35
:1017D00001230023B3421DD1B4F1FF3FF3D02CB15C
:1017E000FEF730FFA0EB0800A042ECD92A68D368CE
:1017F00023F4D073D3602A68536923F00103536143
:10180000202385F8393085F83A30002385F83830C0
:10181000032000E00020BDE8F08158B310B5044675
:1018200090F839300BB3242384F839302268D36818
:1018300023F40053D3602046FFF724FE2268136987
:1018400023F4904313612268536923F02A03536100
:101850002268D36843F40053D3600020E063202360
:1018600084F8393084F83A3010BD80F8383000F010
:1018700001FED8E7012070472DE9F04182B01E46F5
:1018800090F83930DBB2202B55D104460D469046F6
:10189000002955D0002A55D090F83830012B53D06C
:1018A000012380F838300023C363212380F83930C6
:1018B000FEF7C8FE0746A4F82480A4F8268010E0AE
:1018C00000963B46002280212046FFF775FF002846
:1018D0003CD12B882268C3F3080353602369C3B942
:1018E0000235E38C9BB2B3B1E38C013B9BB2E38442
:1018F000A368B3F5805FE3D000963B4600228021C9
:101900002046FFF759FF18BB2A7823685A60013533
:10191000E7E70135E5E700963B46002240212046F7
:10192000FFF74AFF0346A8B9202284F83920002295
:1019300084F8382000E00223184602B0BDE8F081A8
:101940000123F9E70123F7E70223F5E70323F3E790
:101950000323F1E70323EFE790F83A30DBB2202BC3
:1019600020D109B312B390F83830012B20D0816216
:101970008285C2850023C363222280F83A2080F842
:1019800038300168CA6842F48072CA6001684A69E6
:1019900042F001024A610168CA6842F02002CA604E
:1019A0001846704702207047012070470120704799
:1019B00002207047704708B50168CB6823F04003E8
:1019C000CB60202380F83930FFF7F4FF002008BDFA
:1019D00008B590F83A30DBB2222B45D18368B3F5D5
:1019E000805F0ED0036903BB03685A68836A591C81
:1019F00081621A70C38D013B9BB2C385F3B1002095
:101A000033E0826A036943B903685B68C3F3080380
:101A10001380836A02338362ECE703685B68DBB29E
:101A20001380836A01338362E4E703685B68826A38
:101A3000511C816203F07F031370DBE70268D368F7
:101A400023F02003D3600268D36823F48073D3604B
:101A50000268536923F001035361202380F83A3070
:101A600000F0F8F9002000E0022008BD70470000F7
:101A700010B5044602681368D168526913F00F006C
:101A800005D113F0200F02D011F0200F53D1002800
:101A900067D012F0010202D111F4907F61D013F0EF
:101AA000010F06D011F4807F03D0E06B40F00100FD
:101AB000E06313F0040F04D01AB1E06B40F00200B1
:101AC000E06313F0020F04D01AB1E06B40F00400A1
:101AD000E06313F0080F04D01AB1E26B42F0080281
:101AE000E263E26B002A48D013F0200F02D011F01D
:101AF000200F24D123685B6903F04003E26B12F0EE
:101B0000080F00D13BB32046FFF77AFC23685A69DF
:101B100012F0400F1BD05A6922F040025A61636BE9
:101B20008BB11A4A1A65606BFEF710FE28B3606B22
:101B3000036D984721E02046FFF74AFF1DE020464D
:101B4000FFF746FFD6E72046FFF790FF15E0204657
:101B5000FFF78CFF11E02046FFF788FF0023E363C7
:101B60000BE013F0800F02D011F0800F06D113F0BC
:101B7000400F02D011F0400F04D110BD2046FFF7F6
:101B80004DFCFAE72046FFF716FFF6E7911B000829
:101B900008B5806B0023C385C384FFF767FF08BDCA
:101BA0002DE9F0438BB00024059406940794089423
:101BB000099401943E4B1A6B42F004021A631A6BAB
:101BC00002F004020192019A02941A6B42F0800220
:101BD0001A631A6B02F080020292029A03941A6B43
:101BE00042F001021A631A6B02F001020392039A97
:101BF00004941A6B42F002021A631B6B03F0020397
:101C00000493049B2B4D224602212846FEF781FEB9
:101C1000294F224640F223713846FEF77AFEDFF85C
:101C2000A080224630214046FEF773FE4FF4005359
:101C30000593224B0693079405A92846FEF79AFDC3
:101C40004FF00209CDF814900126069607940894E7
:101C500005A92846FEF78EFD40F2237305930696EC
:101C60000794089405A93846FEF784FD0C230593D4
:101C7000CDF818900794032308930723099305A927
:101C80003846FEF777FD4FF40073059306940794EA
:101C900005A92846FEF76EFD3023059306960794A6
:101CA000089405A94046FEF765FD0BB0BDE8F0833A
:101CB00000380240000802400000024000002110ED
:101CC0000004024030B58DB00024089409940A94B1
:101CD0000B9401940294039404940594069407943D
:101CE000144D154B2B604FF452736B60AC6040F297
:101CF000CF73EB602C61AC612846FFF707FA4FF415
:101D00008053089308A92846FFF7DEFA2846FFF714
:101D100016FA6023019340F2E7330293039405948B
:101D2000224601A92846FFF755FA284600F076FB1F
:101D30000DB030BDCC0000200040014008B508487F
:101D4000084B03604FF4E133436000238360C360BA
:101D500003610C2242618361C361FFF75EFD08BD30
:101D60000C0100200014014030B595B03422002150
:101D700007A800F085FC00240294039404940594C1
:101D8000069400941C4B1A6C42F080521A641B6C2F
:101D900003F080530093009B0194184B1A6842F49F
:101DA00040421A601B6803F440430193019B0123E6
:101DB00007934FF4A023089302250D954FF4800359
:101DC0000E9308230F934FF4A873109304231193D9
:101DD0001293139507A8FEF7E9FE0F2302930395CC
:101DE00004944FF4805305930694294602A8FEF705
:101DF0000BFE15B030BD00BF00380240007000403F
:101E00000023934223DA10B40CE000BF4FF060418E
:101E100009680029F9D04FF060410870013321466C
:101E2000934210DA4C1C08784FF06041D1F8801EC4
:101E300011F0010FF2D04FF06041D1F8001E11F007
:101E4000010FEBD0E2E710465DF8044B70471046F7
:101E50007047000038B50268084B9A4200D038BD80
:101E6000074D084C012229462046FFF775FD0A233D
:101E7000012229462046FFF7FFFCF0E7001401404D
:101E8000C80000200C0100200368DBB943685BB97F
:101E900083682BB1012B17D11B4B9E221A6013E0D4
:101EA000194B37221A600FE0012B0DD183682BB13B
:101EB000012B09D1144BD0221A6005E0124B6C2281
:101EC0001A6001E0012B02D00F4B1868704743687D
:101ED0005BB983682BB1012BF6D10B4BB4221A608E
:101EE000F2E7094B4F221A60EEE7012BECD1836831
:101EF0002BB1012BE8D1044BEB221A60E4E7024B33
:101F000080221A60E0E700BF8C00002010B501229B
:101F100002211248FEF7FDFC114C0022012120464F
:101F2000FEF7F7FC012202212046FEF7F2FC40F604
:101F3000AC50FEF78DFB012211462046FEF7E9FC6E
:101F4000002202212046FEF7E4FC41F20400FEF7E5
:101F50007FFB044800F010FC10BD00BF00080240E9
:101F6000000002405035000810B5012210210B4836
:101F7000FEF7CFFC0A4C01224FF480612046FEF7A9
:101F8000C8FC0120FEF764FB00224FF4806120466C
:101F9000FEF7BFFC0120FEF75BFB10BD0004024012
:101FA0000000024010B5002210210B48FEF7B1FCE2
:101FB0000A4C01224FF480612046FEF7AAFC012062
:101FC000FEF746FB00224FF480612046FEF7A1FC9D
:101FD0000120FEF73DFB10BD00040240000002405E
:101FE00010B500224FF400710C48FEF792FC00245B
:101FF00000E00134B4F5AF7F0CDAFFF7B5FF40F233
:102000005D139C42F5D101224FF400710348FEF7A5
:1020100080FCEEE7024800F0AFFB10BD000002407C
:102020006035000810B500224FF400710E48FEF72D
:1020300070FC002400E0013442F20F739C4212DC79
:10204000FFF7B0FF4FF400710848FEF75BFC002873
:10205000F1D1074800F090FB01224FF400710248D3
:10206000FEF757FCE7E710BD000002400008024001
:102070007435000808B500224FF400710B48FEF7D4
:1020800048FCFFF78FFF4FF400710948FEF73AFC58
:1020900018B1084800F070FB08BD074800F06CFB61
:1020A000FFF79EFFFFF7BEFFF3E700BF000002400F
:1020B000000802409C3500088835000810B5002251
:1020C0004FF400710C48FEF724FC002400E00134BA
:1020D000B4F52F7F0CDAFFF747FF40F2BB239C4299
:1020E000F5D101224FF400710348FEF712FCEEE730
:1020F000024800F041FB10BD00000240B03500086E
:1021000038B500224FF400711548FEF702FC002498
:1021100000E00134812C1FDC01224FF48071104853
:10212000FEF7F7FB0F4D012220212846FEF7F1FBB9
:102130000120FEF78DFA002220212846FEF7E9FB58
:102140000120FEF785FA812CE3D101224FF40071C2
:102150000348FEF7DEFBDCE7034800F00DFB38BD6B
:102160000000024000040240BC35000810B5FEF734
:1021700043FAFFF7F9FDFFF713FDFFF7A3FDFFF7A4
:10218000DDFD00218248FFF71DF9012281498248C7
:10219000FFF7E2FB34E0814B00225A609A60DA607C
:1021A0007E4CE368A26861687D4800F071FA63695B
:1021B00001336361252B77D0784B1B69012B00F02D
:1021C0008E80764C201DFFF75FFE714B1B685863B5
:1021D0004FF47A70FEF73CFAFFF798FE6269002A26
:1021E00002F00103B8BF5B42012B00F0998012F0AE
:1021F000010F00F0A380694BDB69132B00F0AD8069
:10220000FFF77EFF634B1B78313B082B48D801A2B8
:1022100052F823F0972100083922000847220008CD
:102220005522000863220008712200087F2200085E
:102230008D22000899220008584B00225A609A60AB
:102240000122DA60ACE7554B00225A600121996007
:10225000DA60A5E7514B00225A6001229A60DA60E9
:102260009EE74E4B01225A6000229A60DA6097E79F
:102270004A4B01225A6000219960DA6090E7474B8F
:1022800001225A609A600022DA6089E7434B0122FA
:102290005A609A60DA6083E7404B01221A617FE757
:1022A0000A20FEF7D5F97BE7A46905E0FFF7E2FE17
:1022B0000A20FEF7CDF9013C002CF7DC4FF47A70D0
:1022C000FEF7C6F9FFF71CFF4FF47A70FEF7C0F96E
:1022D000324BDA690132DA6101225A6171E72F4B20
:1022E0009C6905E0FFF7C6FE0A20FEF7B1F9013C44
:1022F000002CF7DC4FF47A70FEF7AAF9FFF700FF25
:102300004FF47A70FEF7A4F9C820FEF7A1F9234B29
:10231000DA690132DA6101225A6100221A6150E75A
:10232000FFF75EFE4FF47A70FEF792F920211D4808
:10233000FEF7F5FAA3690133A36161E7FFF7BEFE7B
:102340004FF47A70FEF784F920211648FEF7E7FA79
:10235000124A93690233936152E7FFF7D1FEC82016
:10236000FEF776F9FFF7CCFEC820FEF771F9FFF70C
:10237000C7FEC820FEF76CF901224FF4007109482E
:10238000FEF7C7FA002202210748FEF7C2FA37E734
:10239000CC000020C80000200C0100208C00002090
:1023A000C4350008000002400008024000B583B0B8
:1023B000002100910C4B5A6C42F480425A645A6CD2
:1023C00002F480420092009A01911A6C42F080520D
:1023D0001A641B6C03F080530193019B0720FEF7E6
:1023E0004BF903B05DF804FB003802400268094B6A
:1023F0009A4200D0704782B000230193064B5A6C7A
:1024000042F480325A645B6C03F480330193019B85
:1024100002B07047004001400038024000B587B06C
:1024200000230193029303930493059302680E4BD8
:102430009A4202D007B05DF804FB002300930B4BD7
:102440001A6B42F004021A631B6B03F0040300933F
:10245000009B10230193022302930323059301A9F8
:102460000348FEF787F9E5E70040014000380240E5
:102470000008024010B588B000230393049305932D
:10248000069307930268194B9A4201D008B010BD19
:102490000024019403F592335A6C42F020025A64EE
:1024A0005A6C02F020020192019A02941A6B42F0D7
:1024B00004021A631B6B03F004030293029BC02304
:1024C0000393022304930123059303230693082314
:1024D000079303A90648FEF74DF9224621464720F7
:1024E000FEF7DCF84720FEF70DF9CFE700140140B6
:1024F000000802407047FEE7FEE7FEE7FEE7704790
:102500007047704708B5FEF791F808BD08B5024856
:10251000FFF7AEFA08BD00BF0C01002070B50D46F4
:102520001646002404E0AFF3008028700134013522
:10253000B442F8DB304670BD08B503460B4A12685A
:1025400042B10A4A106803446A46934206D8074AD1
:10255000136008BD054A06491160F2E700F066F80D
:102560000C2303604FF0FF30F3E700BFB4000020FE
:10257000500100204FF0FF3070474FF400534B6084
:102580000020704701207047002070470F49D1F8A4
:10259000883043F47003C1F888300D4B1A6842F05C
:1025A00001021A60002098601A6822F0847222F4F6
:1025B00080321A60074A5A601A6822F480221A6030
:1025C000D8604FF000638B60704700BF00ED00E003
:1025D0000038024010300024DFF834D0002103E03E
:1025E0000C4B5B58435004310B480C4B42189A4239
:1025F000F6D30B4A02E0002342F8043B094B9A420F
:10260000F9D3FFF7C3FF00F017F8FFF7AFFD7047EE
:1026100000800020783600080000002070000020B4
:102620007000002050010020FEE70000014B1868F8
:10263000704700BF0C00002070B50D4E0D4CA41B60
:10264000A4100025A54209D10B4E0C4C00F068FFE8
:10265000A41BA4100025A54205D170BD56F8253055
:1026600098470135EEE756F8253098470135F2E7EF
:10267000703600087036000870360008743600089E
:1026800002440346934200D1704703F8011BF9E767
:102690000FB40A4B13B51C6824B1A36913B92046C3
:1026A00000F022FA05AB049AA1680193204600F0DD
:1026B000DBFB02B0BDE8104004B070470C00002006
:1026C00070B50E46054618B183690BB900F00CFAD7
:1026D000AB69AC6813B9284600F006FA234B9C425C
:1026E00017D16C68A3891B071DD52369DBB1013E97
:1026F000A36816F8011F013BA360E9B9002B2EDA8D
:1027000022460A21284600F03FF8013011D00A2065
:1027100011E0174B9C4201D1AC68E3E7154B9C429A
:1027200008BFEC68DEE72146284600F07FF8002865
:10273000DDD04FF0FF3070BD002B04DAA2699A4261
:1027400006DC0A2904D023685A1C22601970CFE7DE
:102750002246284600F018F80130C9D1E9E723687D
:102760000A205A1C22601870E5E700BFF435000803
:1027700014360008D4350008024B01461868FFF7EC
:102780009FBF00BF0C000020F8B50E46144605465A
:1027900018B183690BB900F0A7F9214B9C422AD1EB
:1027A0006C68A369A360A3891A072ED5236963B354
:1027B00023692068C01A6369F6B28342374604DC95
:1027C0002146284600F026F928BBA368013BA360F8
:1027D00023685A1C22601E7063690130834204D052
:1027E000A389DB0719D50A2E17D12146284600F008
:1027F00011F990B10FE00B4B9C4201D1AC68D0E7CE
:10280000094B9C4208BFEC68CBE72146284600F004
:102810000DF80028CCD04FF0FF373846F8BD00BF88
:10282000F435000814360008D4350008324B70B572
:102830001D6806460C4625B1AB6913B9284600F061
:1028400053F92E4B9C420FD16C68B4F90C309AB2FC
:1028500015072CD4D00611D40922326043F040036E
:10286000A3814FF0FF303EE0254B9C4201D1AC6884
:10287000EBE7244B9C4208BFEC68E6E7510712D512
:10288000616B41B104F14403994202D0304600F03B
:1028900019FA00236363A38923F02403A38100238F
:1028A000636023692360A38943F00803A38123693C
:1028B0004BB9A38903F42073B3F5007F03D02146FD
:1028C000304600F0BFF9A28912F001030CD00023BA
:1028D000A36063695B42A361236953B9B4F90C3007
:1028E00013F08000BAD170BD920758BF6369A3602E
:1028F000F2E70020F7E700BF0C000020F4350008E5
:1029000014360008D43500088A892DE9F0410546BF
:1029100010070C4658D44B68002B05DC0B6C002BC1
:1029200002DC0020BDE8F081E66A002EF9D0002329
:1029300012F480522F68216A2B6032D0606DA38917
:102940005A0705D56368C01A636B0BB1236CC01AB4
:1029500000230246E66A216A2846B047431CA38941
:1029600006D129681D2948D8294ACA40D60744D526
:1029700000226260D9042269226004D5421C01D180
:102980002B6803B96065616B2F600029C9D004F121
:102990004403994202D0284600F094F90020606375
:1029A000C0E701232846B047411CC8D12B68002B43
:1029B000C5D01D2B01D0162B01D12F60B1E7A38903
:1029C00043F04003A381ADE70F69002FA9D093071F
:1029D0000E6808BF4B690F6018BF0023A6EB0708FD
:1029E0008B60B8F1000F9CDD43463A46216AA66A27
:1029F0002846B047002806DCA38943F04003A381A2
:102A00004FF0FF308EE70744A8EB0008E9E700BF6E
:102A10000100402038B50B6905460C46DBB118B102
:102A200083690BB900F060F80C4B9C4209D16C68CB
:102A3000B4F90C307BB121462846BDE83840FFF799
:102A400063BF074B9C4201D1AC68F1E7054B9C4248
:102A500008BFEC68ECE7002038BD00BFF435000883
:102A600014360008D4350008002310B50446C0E928
:102A70000033836081814366C281C0E9043383618E
:102A8000194608225C30FFF7FBFD054B6362054BDE
:102A9000A362054BE362054B2462236310BD00BFB4
:102AA000C5330008E73300081F340008433400082A
:102AB000014900F085B800BF152A000870B54A1E0C
:102AC000682555430E4605F1740100F049F90446A6
:102AD00040B10021C0E900160C30A06005F1680289
:102AE000FFF7CEFD204670BD836910B5044633BBA9
:102AF000C0E912330365124B124A1B688262984286
:102B000004BF0123836100F01FF86060204600F0DD
:102B10001BF8A060204600F017F80022E0600421B6
:102B20006068FFF7A1FF01220921A068FFF79CFF61
:102B300002221221E068FFF797FF0123A36110BD75
:102B4000D0350008B12A0008F8B51B4B1E68B369E0
:102B5000074613B93046FFF7C7FF4836D6E90134B8
:102B6000013B03D5336833B13668F7E7B4F90C504D
:102B70006DB16834F4E704213846FFF79FFF3060F9
:102B80000028F1D10C233B6004462046F8BD0B4BD6
:102B90006566C4E90055A560C4E90335C4E9055577
:102BA0000822294604F15C00FFF76AFDC4E90D55CF
:102BB000C4E91255E9E700BFD03500080100FFFF66
:102BC0002DE9F8438046894600F14804002614B9EF
:102BD0003046BDE8F883D4E90175013F01D524688A
:102BE000F5E7AB89012B07D9B5F90E30013303D0D6
:102BF00029464046C84706436835EEE770B50E469D
:102C0000B1F90E10002996B014461D4607DA0023CC
:102C10002B60B3891A0610D44FF480630EE06A4625
:102C200000F036FC0028F2DB019A02F47042A2F5B3
:102C300000535A425A412A60EEE7402300202360A5
:102C400016B070BD8B8973B59D0706460C4607D537
:102C500004F14703236023610123636102B070BD67
:102C600001AB6A46FFF7CAFF00990546304600F0FF
:102C700077F848B9B4F90C309A05EFD423F0030380
:102C800043F00203A381E3E70D4BB362A389206005
:102C900043F08003A381009B6361019B20615BB1D2
:102CA000B4F90E10304600F005FC28B1A38923F0DA
:102CB000030343F00103A381A3891D43A581CDE74D
:102CC000B12A000838B50546002945D051F8043C22
:102CD0000C1F002BB8BFE41800F00EFC1F4A13684D
:102CE000104633B9636014602846BDE8384000F0F0
:102CF00004BCA3420CD921686218934204BF1A682D
:102D00005B68636004BF521822600460ECE71346FE
:102D10005A680AB1A242FAD919685818A0420BD1D0
:102D200020680144581882421960DDD11068526849
:102D30005A6001441960D7E702D90C232B60D3E70E
:102D4000206821188A4204BF11685268626004BF7B
:102D5000091821605C60C7E738BD00BFBC000020D7
:102D600070B5CD1C25F0030508350C2D38BF0C259A
:102D7000002D064601DBA94203D90C233360002055
:102D800070BD00F0B9FB214A1468214691B9204C6E
:102D900023681BB9304600F005FB20602946304609
:102DA00000F000FB431C24D10C233360304600F0BC
:102DB000A4FBE4E70B685B1B18D40B2B0FD90B604B
:102DC000CD50CC18304600F098FB04F10B00231DC9
:102DD00020F00700C31AD3D05A42E250D0E78C4209
:102DE0004B6816BF636013600C46EBE70C464968FE
:102DF000CCE7C41C24F00304A04205D0211A3046BD
:102E000000F0D0FA0130CFD02560DBE7BC00002015
:102E1000C00000209368013B002B10B4936008DAD7
:102E20009469A34201DB0A2903D15DF8044BFFF743
:102E3000ABBC1368581C1060197008465DF8044B51
:102E40007047F8B506460F461446D518AC4201D176
:102E5000002007E03A4614F8011B3046FFF7DAFF7E
:102E6000431CF3D1F8BD00002DE9F04F0C469DB096
:102E700017461D46064618B183690BB9FFF734FEA5
:102E80007C4B9C4258D17468A38918075ED523698E
:102E9000002B5BD00023099320238DF829303023A9
:102EA0008DF82A3003954FF0010BB846454615F8CA
:102EB000013B0BB1252B54D1B8EB070A0BD053467D
:102EC0003A4621463046FFF7BCFF013000F0C28091
:102ED000099B5344099398F80030002B00F0BA8006
:102EE00000234FF0FF32CDE90523049307938DF8BB
:102EF00053301A93A846052218F8011B5E48FDF7C7
:102F000007FB049B78BBD90644BF20228DF85320D1
:102F10001A0744BF2B228DF853202A782A2A2AD058
:102F2000079AA84600200A25414611F8013B303B8C
:102F3000092B69D960B324E0504B9C4201D1B4689D
:102F4000A2E74F4B9C4208BFF4689DE721463046FC
:102F5000FFF76CFC00289DD04FF0FF301DB0BDE89E
:102F6000F08FA846A2E7444A801A0BFA00F01843F3
:102F700004904546BEE7039A111D12680391002A8A
:102F800001DB079204E0524243F0020307920493EC
:102F900098F800302E2B0ED198F801302A2B38D11A
:102FA000039B1A1D1B680392002BB8BF4FF0FF3321
:102FB00008F102080593334D98F8001003222846C3
:102FC000FDF7A6FA40B14023401B03FA00F0049B32
:102FD000034308F10108049398F800102A488DF87B
:102FE0002810062208F10107FDF792FA002837D0D1
:102FF000264B1BBB039B073323F0070308330393C4
:10300000099B4B44099350E705FB02320120884697
:103010008AE7002308F10108059319460A2540466E
:1030200010F8012B303A092A03D9002BC3D005919F
:10303000C1E705FB012101238046F0E703AB0093C4
:103040002246134B04A93046AFF30080B0F1FF3F96
:103050008146D5D1A3895B063FF57EAF09987DE710
:1030600003AB009322460A4B04A9304600F088F8CF
:10307000ECE700BFF43500083436000814360008C9
:10308000D43500083A3600083E360008000000003B
:10309000432E00082DE9F04791461F468A680B69C8
:1030A000DDF820809342B8BF1346C9F8003091F88C
:1030B000432006460C4612B10133C9F8003023689C
:1030C000990642BFD9F800300233C9F800302568AC
:1030D00015F0060507D104F1190AE368D9F80020B4
:1030E0009B1AAB4228DC94F843302268003318BFA7
:1030F000012392062DD404F1430239463046C047DD
:10310000013020D02368E568D9F8002003F00603D9
:10311000042B08BFAD1AA36822690CBF25EAE57528
:1031200000259342C4BF9B1AED184FF000091A34D2
:103130004D451AD1002008E0012352463946304659
:10314000C047013003D14FF0FF30BDE8F0870135B3
:10315000C3E7E1185A1C302081F84300224494F858
:10316000451082F843100233C5E701232246394651
:103170003046C0470130E6D009F10109D8E7000028
:103180002DE9F04301F1430C0C46097E85B06E2910
:103190001746064698460C9A00F0B38022D8632959
:1031A00036D00AD8002900F0B980582900F0838071
:1031B00004F1420584F8421032E0642901D0692903
:1031C000F6D120681368050603F104012AD51B68AF
:1031D0001160002B03DA2D225B4284F843206F48F4
:1031E0000A2239E0732900F09D8008D86F2920D089
:1031F0007029DDD1236843F02003236003E07529A3
:1032000017D07829D4D1782384F84530644855E024
:103210001368191D1B68116004F1420584F84230DF
:1032200001238CE01B68116010F0400F18BF1BB227
:10323000CFE713682568181D1060280601D51B68A4
:1032400002E06806FBD51B8854486F2914BF0A2288
:103250000822002184F843106568A560002DC0F2A3
:103260009580216821F004012160002B3DD1002DC3
:1032700040F08E806546082A0BD12368DB0708D50D
:10328000236962689A42DEBF302305F8013C05F1EC
:10329000FF35ACEB05032361CDF800803B4603AA64
:1032A00021463046FFF7F6FE01304DD14FF0FF309A
:1032B00005B0BDE8F083394884F8451013682168EB
:1032C0001D1D1B6815600A060BD5CA0744BF41F0D7
:1032D000200121601BB9226822F020022260102206
:1032E000B7E74D0648BF9BB2EFE76546B3FBF2F187
:1032F00002FB1133C35C05F8013D0B460029F5D1F3
:10330000B9E7136825686169181D106028061B68F5
:1033100001D5196002E06A06FBD5198000232361FC
:103320006546B9E71368191D11601D6862680021C0
:103330002846FDF7EDF808B1401B60606368236123
:10334000002384F84330A7E723692A4639463046EC
:10335000C0470130AAD023689B0713D4E068039BC1
:103360009842B8BF1846A3E701234A46394630467B
:10337000C04701309AD00135E368039A9B1AAB42EB
:10338000F2DCEBE7002504F11909F5E7002BACD1DD
:10339000037884F8423004F142056CE745360008B2
:1033A0005636000838B5064C00230546084623600B
:1033B000FFF7C2F8431C02D1236803B12B6038BD6C
:1033C0004C01002010B50C46B1F90E1000F096F833
:1033D0000028ABBF636DA3891B1823F48053ACBFD7
:1033E0006365A38110BD2DE9F0411F468B89DB0584
:1033F00005460C46164605D502230022B1F90E10EB
:1034000000F068F8A389B4F90E1023F48053A38167
:1034100032463B462846BDE8F04100F017B810B5EB
:103420000C46B1F90E1000F055F8431CA38915BFE6
:10343000606523F4805343F48053A38118BFA381B4
:1034400010BDB1F90E1000F013B8000038B5074CEC
:10345000054608461146002222601A46FEF7D0FCB7
:10346000431C02D1236803B12B6038BD4C010020FE
:1034700038B5064C0023054608462360FFF77AF866
:10348000431C02D1236803B12B6038BD4C010020DE
:1034900038B5074C00230546084611462360FFF760
:1034A0006CF8431C02D1236803B12B6038BD00BF08
:1034B0004C01002038B5064C002305460846236021
:1034C000FFF760F8431C02D1236803B12B6038BDBD
:1034D0004C01002038B5074C05460846114600222D
:1034E00022601A46FFF750F8431C02D1236803B14B
:1034F0002B6038BD4C0100207047704738B5074C31
:10350000054608461146002222601A46FFF706F8D3
:10351000431C02D1236803B12B6038BD4C0100204D
:10352000F8B500BFF8BC08BC9E467047F8B500BFB0
:08353000F8BC08BC9E46704780
:10353800000000000000000001020304060708095B
:1035480000000000010203046463B8F0C5CDB7CEE3
:1035580020C4E70D00000000B4D9C0BDB2ACB7CE9E
:1035680020B3D1BEEEB0A10D00000000B5CEB9F871
:10357800C2B020BDBAC0A7C4A120B4ADB8B20D0076
:10358800C3B9B9F8C2B020BDBAC0A7C4A120B4ADB0
:10359800B8B20D00C0FCBFA1B2ACB7CE20B3D1BE4B
:1035A800EEB0A10D00000000BDBAC6E4C0CCBDBAA3
:1035B800B4D90D00BFA3C5CDB4D90D0025643A25F3
:1035C800643A25640D0A0000100000200000000085
:1035D80000000000000000000000000000000000E3
:1035E80000000000000000000000000000000000D3
:1035F80000000000000000000000000000000000C3
:1036080000000000000000000000000000000000B2
:1036180000000000000000000000000000000000A2
:10362800000000000000000000000000232D302BE7
:103638002000686C4C0065666745464700303132AB
:103648003334353637383941424344454600303102
:103658003233343536373839616263646566000061
:08366800D8CBFF7F0100000038
:04367000F501000858
:04367400D101000878
:1036780001000000100000000024F40010000020E9
:1036880000000000F435000814360008D43500089E
:103698000000000000000000000000000000000022
:1036A8000000000000000000000000000000000012
:1036B8000000000000000000000000000000000002
:1036C80000000000000000000000000000000000F2
:1036D80000000000000000000000000000000000E2
:04000005080025D9F1
:00000001FF
